:0600000019C0FECFFDCF88
:10000600FCCFFBCFFACFF9CFF8CFF7CFC5C0F5CFEE
:10001600F4CFF3CFF2CFF1CFF0CFEFCFEECFEDCFDE
:100026000053000000000600040026000000F894BB
:10003600EE27ECBBF1E0FBBFEBBFE5BF8DE0A2E036
:10004600BB27ED938A95E9F780E094E0A0E6ED936F
:100056000197E9F7ECE2F0E085919591009761F060
:10006600A591B59105901590BF01F00105900D92EF
:100076000197E1F7FB01F0CFEFE5EDBFE4E0EEBF5E
:10008600C0E6D1E0B5C0AA931A9310E0183088F400
:10009600E981E07811F4AB9801C0AB9AE7D0E98129
:1000A600EE0FE983E7D0A981EA2BE983AA981F5FBF
:1000B600EDCFE98118811FC000D110E000E00830C3
:1000C60038F4D4D0110FD6D01E2BAA980F5FF7CFD5
:1000D600E12F099119910895A89A88E795E001976B
:1000E600F1F7A898A99A0895AA93A998E981E062D8
:1000F600AE2FC6D0C8D022960895AA93A99816C046
:10010600AA93A998E3E0EA93A3E0EEDFBCD0A9980E
:10011600AAE2B6D0A881B4D0A881B2D0B4D0A998AA
:10012600A0E3AED0A881ACD0A881ADDFA881ABDFBB
:10013600AAD021960895ACD0A89A0895A2EEDDDF44
:100146008BE18A95F1F7A4D0A2E0B0E0ACD0A4D0C0
:10015600E1E1A6D0E5E0EA93A2E0C6DFA52DD0DF77
:10016600E2E09ED0E1E09CD0E4E0EA93A0E0BCDFD0
:1001760008951A93A89887D0A998A1E684DF8BE101
:100186008A95F1F799DF1E2FA99AA89A85D0A2EE33
:10019600B4DFE12F199108950A921A92FA926A939E
:1001A6007A938A939A93AA93BA93EA93FA93EFB7B8
:1001B600EA93E3E8E2BFF30131963F01E4EFF1E0B1
:1001C600E615F70539F4992011F447D001C039D066
:1001D60066247724E991EFBFF991E991B991A99144
:1001E6009991899179916991F99019900990189549
:1001F600E0E0E7BBE8BBEFE0E4BBEFEAE5BBE7E046
:10020600E1BBE0E0E2BBE3E0E3BFE3E8E2BFE1E05D
:10021600E9BF789493DF60DF8EDF9D9910C0A9DF78
:100226004E2E442029F4E1E09E2E9298909A9198C1
:10023600E1E0E41521F49924919A92989098ECCFF4
:10024600FFCF9198929B02C0929801C0929A909B80
:1002560002C0909801C0909A05C0919B02C09198E7
:1002660001C0919AAAEFB0E01ED008958DE08A955C
:10027600F1F70895AA9AFADFE0E09C99E1E0089583
:1002860002DFA88100CFA99A8BE18A95F1F708953C
:10029600E0E0EA93AFE128CFE7E0EA93AEE724CFC8
:1002A600EA93A1E021CF109639F080ED97E001970F
:1002B600F1F7A8951197C9F708951A930A93089527
:00000001FF
