:0A0000003DC1FECFFDCFFCCFFBCFCA
:10000A00FACFF9CFF8CFF7CF60C1F5CFF4CFF3CF5E
:10001A00F2CFF1CFF0CFEFCFEECFEDCF05072060D3
:10002A0000000000000000040A0400070007001492
:10003A007F147F14242A7F2A122313086462364904
:10004A005522500005030000001C224100004122F5
:10005A001C00082A1C2A0808083E0808005030001C
:10006A0000080808080800303000002010080402C0
:10007A003E5149453E00427F400042615149462176
:10008A0041454B311814127F1027454545393C4AE2
:10009A004949300171090503364949493606494932
:1000AA00291E0036360000005636000000081422C9
:1000BA0041141414141441221408000201510906AF
:1000CA00324979413E7E1111117E7F494949363EB6
:1000DA00414141227F4141221C7F494949417F09CF
:1000EA000901013E414151327F0808087F00417FE2
:1000FA0041002040413F017F081422417F40404097
:10010A00407F0204027F7F0408107F3E4141413E46
:10011A007F090909063E4151215E7F091929464690
:10012A004949493101017F01013F4040403F1F20B9
:10013A0040201F7F2018207F63140814630304786B
:10014A000403615149454300007F414102040810FC
:10015A002041417F00000402010204404040404027
:10016A00000102040020545454787F48444438382B
:10017A0044444420384444487F3854545418087E30
:10018A00090102081454543C7F0804047800447D91
:10019A0040002040443D00007F10284400417F4039
:1001AA00007C041804787C080404783844444438F1
:1001BA007C14141408081414187C7C0804040848D5
:1001CA0054545420043F4440203C4040207C1C208E
:1001DA0040201C3C4030403C44281028440C5050DD
:1001EA00503C4464544C44000836410000007F00EF
:1001FA0000004136080002010204027F4141417FAA
:10020A001027E80364000A00010000100001100032
:10021A000100000103070F1F3F7FFF007B5300000F
:10022A00526F626F74696300464F52007374617251
:10023A0074657273004449592D4855530025750059
:10024A0001002D4E414E00494E46000004000400B4
:10025A002602080060012A0204006801320209002D
:10026A006C013602080075013F0201002A044A02A5
:10027A000000F894EE27ECBBF1E0FBBFEBBFE5BF53
:10028A008DE0A2E0BB27ED938A95E9F780E094E040
:10029A00A0E6ED930197E9F7E6E5F2E085919591FD
:1002AA00009761F0A591B59105901590BF01F001F5
:1002BA0005900D920197E1F7FB01F0CFEFE5EDBF55
:1002CA00E4E0EEBFC0E6D1E0FFC0EA93EFB7EA93FD
:1002DA00ECE9E2BF7394E8ECE71509F477247614A5
:1002EA0010F4909A01C09098E991EFBFE99118959E
:1002FA002897E7ECE7BBE0E0E8BBE0E2E4BBE0E03C
:10030A00E5BBE9E7E1BBEEEFE2BBE2E0E3BFECE924
:10031A00E2BFE1EAEFBDEBE0EEBDE0E0EDBDECBD32
:10032A00E7BDE6BDEBBDEABDE9BDE8BDE2BDE5BDA1
:10033A00E4BDE3BDE1E0E9BFE0E0E5BFEAB9E0E83A
:10034A00E8B9E0E0E0BFE6B9EDB9E6BFE6E2F0E021
:10035A00E883F983E0E0EA83EB83EC83ED83EE81C3
:10036A00EC7FEE83E37EEC60EE83EF81E078EC6372
:10037A00EF83DE0189D27894EAE06E2E66D6A0E099
:10038A00CAD5A0E6B1E0B8D5ECE1EA93ADE0C3D5B1
:10039A00A8E6B1E0B1D5E3E2EA93A8E1BCD5ACE6C0
:1003AA00B1E0AAD5E9E1EA93A8E2B5D5A5E7B1E0BB
:1003BA00A3D5A8EEB3E03ED79DC54AD610E01830C3
:1003CA0088F4E981E07811F4969801C0969A43D6A8
:1003DA00E981EE0FE98343D6A981EA2BE983939851
:1003EA001F5FEDCFE9811881D0C580D710E000E00A
:1003FA00083038F430D6110F32D61E2B93980F5F7F
:10040A00F7CFE12F099119910895949A88E795E019
:10041A000197F1F79498959A0895AA939598E98186
:10042A00E062AE2F22D624D6B0C5AA939598A881A9
:10043A00C4DF1ED697C2AA939598E3E0EA93A3E095
:10044A00ECDF16D69598AAE210D617D616D610D68D
:10045A009598A0E30AD611D610D60AD683C2F5D546
:10046A00AFE1DBDF949A0895A2EEDFDF8BE18A9594
:10047A00F1F7EBD5AFE1D1DFA2E0B0E0DBD6FFD5F3
:10048A00E1E101D6E5E0EA93A2E0C7DFA52DD3DFDB
:10049A00E2E0F9D5E1E0F7D5E4E0EA93A0E0BDDFD8
:1004AA0008951A939498E4D59598A1E686DF8BE18E
:1004BA008A95F1F79ADF1E2F959A949AE0D5A2EEC3
:1004CA00B4DFE12F1991089513DFCEDF9EDF4CD2FE
:1004DA00C6DF87991CC0C79B02C0C79801C0C79ACC
:1004EA00E4E1EA93A0E017D5DCDF4E2EEAE9F1E079
:1004FA00CDD5E7E4F2E0CAD5E42DFF2766277727B2
:10050A00CBD684E047D12896AAE9B1E0F5D4E0CF6A
:10051A00FFCFBFD5EBD6C0D51296B6D63097F1F03D
:10052A00BBD5BDD58F01309761F00230E0E01E07E0
:10053A0070F0F80131978F01AA81BB811496ED936F
:10054A00FC93AAD51296AED53197AC81A083A4D5D7
:10055A009BD6FF2312F0A0D5A5D505C09DD5EFEFF8
:10056A00FFEFED93FC93C9D6EFC493D52697BAD67D
:10057A0010E0AC85BD859CD5ED93FC93EA89FB8997
:10058A003196EA8BFB8B3197E4912E2FE03009F4F8
:10059A00FBC0E12FE03031F4253211F411E001C043
:1005AA008AD5F1C0E130A1F4253211F484D5EAC02C
:1005BA0012E040E000E02D3211F401E0E4C02B32F9
:1005CA0011F44BE2E0C0203211F440E2DCC002C078
:1005DA00E23039F450E013E0203311F40068D3C05C
:1005EA0003C0E33009F0CFC0203310F02A3308F0FB
:1005FA0007C0AAE05A9F502DE22FE0535E0FC3C0F6
:10060A00E22FE33639F45ED560D55CD5A481AA938E
:10061A0060D5B8C0E33731F462D563D565D596D4D1
:10062A001E2F08C0E03751F45AD55BD55DD599D451
:10063A001E2F086002600F7730E02DC0E43611F0FB
:10064A00E93611F4046002C0E53729F4EAE0F2E081
:10065A0050D515E00BC0E83511F4086003C0E8373F
:10066A0009F090C0E4E1F2E044D514E002FF10C0C2
:10067A0036D537D541D5AB85AA2322F440D5E8D55E
:10068A003BD54DE2403011F01F5F01C00B7F03C024
:10069A0026D527D531D500FD10C0151770F407FFF0
:1006AA0008C002FF04C00B7F242F115001C020E3B1
:1006BA0001C020E200D55150F0CF312F01FF15C003
:1006CA00303091F003FF05C0EE81FF81259111D5ED
:1006DA0005C0AE81BF812D91AE83BF83ECD450306B
:1006EA0009F051503150ECCF44C020E3EE81FF8134
:1006FA00CFD5E887F987EE81FF813296FAD4E8856B
:10070A00F98500D5AE17BF0740F02F5FA885B985D8
:10071A00F6D4EA1BFB0BF0D4F2CF2A3328F003FFFE
:10072A0002C0295F01C0295D04FD19C0213320F4EC
:10073A00A885B985119709F409C0531710F000FF6D
:10074A0001C011C020E207FF0AC020E3006102FFD6
:10075A0006C00B7F4A93BDD4503009F05150ABD438
:10076A00503009F051503150A885B985129708F0D8
:10077A00BCCF00FF07C0503029F05150E0E2EA93A5
:10078A00A8D4F9CF10E0FACEAC85BD857DD5B1D518
:10079A0064960895FF92F82E2697A6D5B6D4309778
:1007AA0019F4EFEFFFEF1CC0DE0116964DD58D014F
:1007BA00ACD49FD4E0E0E887E987DE011A9644D5F5
:1007CA0063D564D41A930A93EEE8F2E05FD4DE01AB
:1007DA001A96CBDE9F01AE81BF81E0E0EC93F9016E
:1007EA008AD52A96FF900895089532D4A99818E0D8
:1007FA00FBDFE981E07811F0AB9A01C0AB98E9819F
:10080A00EE0FE983F1DFAC9AEFDFAC98115081F774
:10081A00A99A1881BAC3AA93AA98A881E6DFA2C0A6
:10082A00AA93AA9AA881E1DF9DC012D4E98172D461
:10083A001E2FE4E5E19FF001DF01EA816FD4E09326
:10084A003002F0933102E12F1881E0C3AA93E981C3
:10085A00E06868D4E981EA93A981E7DFE06462D4B9
:10086A0094C3AA93E981EA93A981F0DFE091300267
:10087A00F091310259D4E08188C3AA9358D45AD44A
:10088A00A881A083CDDF6EC004D42ED5A19AA99ADF
:10089A00A49AAC98A39AA29AA09AA898AAE0B0E0BF
:1008AA00C9D4A89A49D43097D9F046D4E681E370DE
:1008BA001E2F42D4E681E695E695E7700E2F3CD4CA
:1008CA00E781EF773E2FAC81BD81DED438D4AC818D
:1008DA00BD811296D9D438D4AC81BD81E0D308C089
:1008EA0010E003E032E3E4D32AD4E2D32DD4E0D3F8
:1008FA00E0939801F0939901A1E28DDFE12FE46082
:10090A0011D4E02FE0610ED4E32FE0680BD4A0E20B
:10091A0082DFA1E01FD0E1E0E0937D01E0E0E09317
:10092A007E01E1E0E0938301E0938401E093850195
:10093A00EFEFE0938601E1E0E0938D01EEE8F1E06C
:10094A00A5D3EFEFEA93A8E0B0E0F1D20DD0E1E051
:10095A00D2D458C0AA93E881E03011F0ECE001C08B
:10096A00E8E0E0D321960895BFD430E0E0917E011B
:10097A00E03009F03FEF69D3A0E068DF08EF11E04B
:10098A00F80101501040309719F0A32F76DFF8CF05
:10099A005CD3A0E0C0D2AFD456C35AD3ED81EA9358
:1009AA00AD815FDF1E2FE981E73011F0E83031F4C5
:1009BA00EB81EA93AA81EBD2EB8308C0E33021F4FE
:1009CA00EB81E095EB8302C0E03021F4EA81E09507
:1009DA001E2302C0E23029F4EA81AB81EA231E2BEE
:1009EA000EC0E13029F4EA81AB81EA231E2707C051
:1009FA00E43029F4EA81E095AB81EA2B1E23A12F8A
:100A0A003CDF188126960895AA9323976BD4A88968
:100A1A00A43548F4AF85A03330F4AE85A03019F080
:100A2A00AD85A03009F485C1EE85E887A889BB2782
:100A3A00EE858FD3A535E0E0BE0720F0A889E4E56E
:100A4A00EA1BEE872D85AF85BB27ED8582D3D1972B
:100A5A0020F0AF85E0E3EA1BED87A985A63009F00F
:100A6A0052C0EC85E13009F464C1E33039F4E09115
:100A7A009801F0919901309709F45BC10885ED85D9
:100A8A0049D33E2FE22FE77019F4AD852A17D1F02A
:100A9A00A02FBB27E32F61D335D3EA0FFB1F29D33E
:100AAA00269526952695532F5F935F5FE22FAF9188
:100ABA00EA1740F0102FE12F1150E03011F050D317
:100ACA00FACFF2CFAE850A17F1F0EE851BD326D303
:100ADA0010D3ED85E77009F03F5F20E02F932F5F79
:100AEA00E32FAF91AE1778F41E851F931F5FE02F97
:100AFA00AF91AE1710F434D3F8CFEE85AE81BF8133
:100B0A000DD3F7D2EBCFEF85E7703E2FED85E030BE
:100B1A0009F40FC1F4D2EDD210E00889303009F09F
:100B2A005AC0AD85A83008F451C0E985E03011F00B
:100B3A00E33009F402C0E73009F402C0E83009F4EE
:100B4A0002C0E93009F402C0EA3019F414D37EDE97
:100B5A0004C0E63011F40FD368DE1F930FD3AF91B0
:100B6A00AE1768F5A985A63039F40BD38FD2DFD238
:100B7A00E1D2A0814DD222C0E985E93011F450E0DA
:100B8A000CC0EA3011F45FEF08C0FBD203D35E2F2A
:100B9A00E985E73011F0E83019F401D35E2F06C079
:100BAA00E33011F4509502C0E03019F4A52F38DE75
:100BBA0005C0F8D2EFEFEA93AD85EFDECECFEF8531
:100BCA00E85FEF87ED85E850ED87AEC05D8520E0F0
:100BDA00E0E0ED8767C0E32FAD85AE0FA93020F4C2
:100BEA002D85E0E0ED8703C0E8E0E31B2E2F3A9362
:100BFA00A22FC3D14E2FE985E630C1F4BCD215DE4F
:100C0A001F93BCD2AF91AE1780F491D293D2E081F8
:100C1A00E423AE2FE32F28D3CBD2E32FA42F24D360
:100C2A00D1D234D2A52FF4D1EBCF22C0E93011F4BE
:100C3A0050E003C0EA3089F45FEFB1D2AE2FE32F60
:100C4A000BD35E2F1F939AD2AF91AE1728F4AAD274
:100C5A004A93A0E0A2DEF6CF0BC01F938FD2AF91CA
:100C6A00AE1730F4B3D2AE2FE32FF6D2BCD2F5CF03
:100C7A00ED85E03009F45DC0AD85A83028F4ED8536
:100C8A00E21B5E2FE0E003C0532FED85E850ED87AD
:100C9A0010E0EF85E85FEF87E8E0E31B2E2F088975
:100CAA002ED227D2E52FF0E0E45EFD4F4491E9858C
:100CBA00E630C1F460D2B9DD1F9360D2AF91AE17AE
:100CCA0080F435D237D2E081E423AE2FE22FC4D2AA
:100CDA006FD2E22FA42FC0D275D2D8D1A52F98D126
:100CEA00EBCF22C0E93011F450E003C0EA3089F4B6
:100CFA005FEF55D2AE2FE22FB7D25E2F1F933ED2AF
:100D0A00AF91AE1728F44ED24A93A0E046DEF6CF52
:100D1A000BC01F9333D2AF91AE1730F457D2AE2F18
:100D2A00E22FA2D260D2F5CFE885ECD1F7D1E4D197
:100D3A00EDCEDFD2619608955AD214F0B9D125C109
:100D4A005BD2A435E0E0BE071CF0E3E5F0E01DC18C
:100D5A00E881F9811AC14BD214F0AAD116C14CD23A
:100D6A00D0971CF0EFE2F0E010C1E881F9810DC1E3
:100D7A0090D1239744D28F01002E012A11F498D1E1
:100D8A0052C043D20F8241D20E823FD20886EB85EF
:100D9A00A885EA1710F48CD146C0F8010F5F1F4FDF
:100DAA005491A885BB27EE27A50FBE1FEB85F0E05F
:100DBA00EA17FB0710F07CD136C0EE81ABD14E2F7B
:100DCA00EE81E77009F04F5FEF81E03081F0A9858D
:100DDA00BA85EC93A885EB85EA1BF0E0DF01EF8189
:100DEA00BCD1DF01E42FB9D1E00FF11F1CC098017B
:100DFA00E52FF0E00E0F1F1FA885AF5FA887A1504F
:100E0A00EB85AE1750F4F9012F5F3F4FA491B0E084
:100E1A00E42FA3D10E0F1F1FEFCFF901E491A9858B
:100E2A00BA85EC93F80165D22C960895E0E0E09338
:100E3A007F01A0918001BB27EDD18BD1E091840184
:100E4A0088D189DFE09380010895AA932197D7D1A9
:100E5A00309709F44CC0AF81AA3009F446C0EF813B
:100E6A00EA93DE01179684DFAF01309709F441C097
:100E7A00E0918301AE81EA0F3E2FA0917F01BB274B
:100E8A004DD18F010535E0E01E0718F0032F112719
:100E9A00CDDFE0917F01C5D1E885EA93BBD1EA9322
:100EAA00E1E0EA935A934A93A7E0AEDDE0917F012D
:100EBA00AE81EA0FB6D1E0918301EA93ABD1EA930E
:100ECA00C4D0B4D1E0917F01EA93A0918001A2D16C
:100EDA00EA0FEA933A93E0918401EA93B6D0A6D155
:100EEA00E4E5F0E0E017F10711F4A0DF02C0009397
:100EFA007F01FFD128960895CCD01A93A981BA818F
:100F0A00ED91A983BA831E2FE03019F0A12F9DDF3E
:100F1A00F5CF18817BC0AA93A981BB270DDFE09387
:100F2A007F01A881BB2717DFE09380012EC0B1D0D3
:100F3A00B981A881109631F0FC81EB816A816193B5
:100F4A001197E9F7EB81FC8125960895A2D0A99122
:100F5A00B991EE27FF276D91662311F03196FBCFE9
:100F6A00089597D0AA27BB27E991F9910590002007
:100F7A0011F01196FBCFFD010895AA93E881F0E0E4
:100F8A00E45EFD4FA491E98167D12296089560D06D
:100F9A00E981E73011F0EA3019F410917D0109C0B6
:100FAA00E93019F410917E0104C0E830A1F41091DF
:100FBA008D01E0917E01E03049F0103019F0EFEF39
:100FCA00188124C0EA81E095188120C0103019F4F4
:100FDA00E0E018811BC0EA81188118C05AD0EA8162
:100FEA00E13021F4E881F981E49110C0E23019F48A
:100FFA0003D157D10BC0E33039F4FED0E09196010A
:10100A00F0919701099502C0F7D0EC9123960895C3
:10101A00AA93EB81E03029F4E881A981BA81EC93A3
:10102A0012C0E23029F4E881A981BA8146D10BC005
:10103A00E33049F4E981FA8129D0AA81E091980143
:10104A00F0919901099524960895E0E0EA930895AC
:10105A00AA931A9308958DE08A95F1F70895939AC1
:10106A00FADFE0E08299E1E00895A7D9A881A5C94D
:10107A00959A8BE18A95F1F70895A881F6CFE7E072
:10108A00EA93AEE7CAC9EA93A1E0C7C9FA93EA9319
:10109A000895BA93AA930895AA81BB8108951496D4
:1010AA00F3D00895ED91FD913196FE93EE93089554
:1010BA00E0E0F0E008952A93AD85BE85EF85F889D2
:1010CA0009950895E889F98908953497E88BF98B89
:1010DA000895AD85BE85EF85F88909950895F2DFF3
:1010EA00F4CFA889B989DBCFEE83FF83AE81BF81B4
:1010FA000895EE83FF830895EA87FB870895EA85BA
:10110A00FB850895AA85BB850895DE011C969CD0AF
:10111A00BBD00895E695E695E6950895F0E0EA0FC6
:10112A00FB1F0895AE2F77CBEE5CFD4F0895A0E329
:10113A00B2E0B8CF3197F8CFEC81FD810895E09302
:10114A008101F09382010895E0939601F09397014B
:10115A000895F0E0AE0FBF1F0895F0E08DD0089516
:10116A00EC85EA93EF81F8853196EF83F88731971A
:10117A008DDFA0E04DCF0A93A88908951F5FEE8501
:10118A000895EC85EA93EF81F8853196EF83F88725
:10119A003197089566277727DF01CB011FCF5A932E
:1011AA00AA85F5CE0A930395E889EA935A93089596
:1011BA005E2FEC85EA93AF81B885882799270EDFE1
:1011CA001E2E0895E095E1215E2BDBCF0A9303954D
:1011DA00E889EA93EE85EA93E985FA853196E98703
:1011EA00FA873197D7CFEA934A93AD85D6CB51DFA9
:1011FA00A881B98173D00895A881B981089572D060
:10120A00E0918101F09182010895F8010F5F1F4F6B
:10121A0004900895E0918101F09182013196E49160
:10122A000895EA93E0918001EA93089541DF2EDF61
:10123A00A9E0EACB109639F080ED97E00197F1F733
:10124A00A8951197C9F708950024AF0DB01D089508
:10125A00F195E195F0400895EE230E2EEA2F19F04C
:10126A00EE0F0A94E9F70895EE230E2EEA2F19F0ED
:10127A00E6950A94E9F70895FA9FF02DEB9FF00D91
:10128A00EA9FE02DF10D0895ED91FC9111970895D3
:10129A000590F491E02D08957A936A93FA93EA936C
:1012AA000895E199FECFFF93FFB7F894AEBBBFBB99
:1012BA00E09AEDB3FFBFFF910895E19B02C0A895A4
:1012CA00FCCF9FB7F894AEBBBFBBE09A8DB3E817CB
:1012DA0019F0EDBBE29AE19A9FBF089500240A161D
:1012EA000B0608955A934A933A932A931A930A93A8
:1012FA0008955D814C813B812A8119810881089575
:00000001FF
