:0E0000000C9455010C9400000C9400000C941C
:10000E0000000C9400000C9400000C9400000C9462
:10001E0000000C9400000C9400000C9400000C9452
:10002E0081010C9400000C9400000C9400000C94C0
:10003E0000000C9400000C9400000C9400000C9432
:10004E0000000C9400000507206000000000000076
:10005E0000040A040007000700147F147F14242AEA
:10006E007F2A122313086462364955225000050375
:10007E000000001C2241000041221C00082A1C2AFC
:10008E000808083E08080050300000080808080854
:10009E00003030000020100804023E5149453E0059
:1000AE00427F400042615149462141454B3118146F
:1000BE00127F1027454545393C4A4949300171099F
:1000CE0005033649494936064949291E0036360088
:1000DE0000005636000000081422411414141414A3
:1000EE0041221408000201510906324979413E7E2F
:1000FE001111117E7F494949363E414141227F41CE
:10010E0041221C7F494949417F090901013E414174
:10011E0051327F0808087F00417F41002040413F57
:10012E00017F081422417F404040407F0204027F3D
:10013E007F0408107F3E4141413E7F090909063E7A
:10014E004151215E7F09192946464949493101012C
:10015E007F01013F4040403F1F2040201F7F20185D
:10016E00207F631408146303047804036151494526
:10017E004300007F4141020408102041417F0000EE
:10018E0004020102044040404040000102040020ED
:10019E00545454787F4844443838444444203844B6
:1001AE0044487F3854545418087E090102081454E8
:1001BE00543C7F0804047800447D40002040443DB8
:1001CE0000007F10284400417F40007C0418047812
:1001DE007C0804047838444444387C141414080809
:1001EE001414187C7C080404084854545420043F0A
:1001FE004440203C4040207C1C2040201C3C403091
:10020E00403C44281028440C5050503C4464544CFC
:10021E0044000836410000007F000000413608000F
:10022E0002010204027F4141417F1027E80364006E
:10023E000A00010000100001100001000001030778
:10024E000F1F3F7FFF0000000000000000000000B5
:10025E007465737400202575007865206469206EBE
:10026E0068616E68007865206469206368616D005E
:10027E0001002D4E414E00494E460000090005007A
:10028E005402050060025E020C00650267020B005C
:10029E00710273020100AD027E020000F894EE2797
:1002AE00ECBBF1E0F5BFE5BF8DE0A2E0BB27ED931F
:1002BE008A95E9F780E098E0A0E6ED930197E9F7DB
:1002CE00EAE8F2E085919591009761F0A591B591DC
:1002DE0005901590BF01F00105900D920197E1F781
:1002EE00FB01F0CFEFE5EDBFE8E0EEBFC0E6D2E0F8
:1002FE000C94A6010A921A929A93AA93BA93EA932D
:10030E00FA93EFB7EA93E2EBE2BF552071F0F401F6
:10031E003A964F01D401E8EEF3E00E94A809309717
:10032E0021F4F30131963F013197E991EFBFF99135
:10033E00E991B991A99199911990099018952897D9
:10034E00E0E0EABBE0ECEBBBE3E0E7BBE2E0E8BBFE
:10035E00E0E2E4BBE3E0E5BBE0E0E1BBE1E0E2BB11
:10036E00E5E0E3BFE2EBE2BFE0E0ECBFEFBDEEBDE8
:10037E00EDBDECBDE7BDE6BDEBBDEABDE9BDE8BD3B
:10038E00E2BDE5BDE4BDE3BDE1E0E9BFE0E0E5BF10
:10039E00E4BFEAB9E0E8E8B9E0E0E0BFE6B9EDB9FC
:1003AE00E6BFE4E5F0E0E883F983E0E0EA83EB837F
:1003BE00EC83ED83EE81EC7FE260EE83E37EEC6016
:1003CE00EE83EF81E078E763EF83DE010E9439046C
:1003DE007894E0E0EA93EAE0EA93A0E6B2E00E94C5
:1003EE001008809905C00E94C204E1E05E2E530100
:1003FE00CF9934C0CF9932C0552079F1F301EA1963
:10040E00FB096F01E9E9F2E0FA93EA93E3E6F2E021
:10041E00FA93EA93F601662777270E94B30984E0E0
:10042E000E94A5032896EAE0EA93EA93A9E9B2E0CE
:10043E000E941008E5E0F0E0CE16DF0630F4E0E0B2
:10044E00EA93EA93A5E6B2E005C0E0E0EA93EA9308
:10045E00A1E7B2E00E9410085524CCCFC2CFFFCF47
:10046E00BA93AA931A930A93AA81BB8112960E94F9
:10047E00AB09309729F1AA81BB8114960E94AB0972
:10048E008F01309761F00230E0E01E0780F0F80136
:10049E0031978F01AA81BB811496ED93FC93AA81AB
:1004AE00BB8112960E94CB083197AC81A083AA81A2
:1004BE00BB810E94AB09FF2312F00E94CB0806C03D
:1004CE00AA81BB81EFEFFFEFED93FC9319810881B9
:1004DE0025960895BA93AA9326970E94D90910E0FB
:1004EE00AC85BD85E0E0F0E0ED93FC93EA89FB89F5
:1004FE003196EA8BFB8B3197E4912E2FE03009F485
:10050E0015C1E12FE03039F4253211F411E002C0AB
:10051E000E94D1080AC1E130A9F4253219F40E94D3
:10052E00D10802C112E040E000E02D3211F401E0EA
:10053E00FCC02B3211F44BE2F8C0203211F440E231
:10054E00F4C002C0E23039F450E013E0203311F46D
:10055E000068EBC003C0E33009F0E7C0203310F0B1
:10056E002A3308F007C0AAE05A9F502DE22FE0531D
:10057E005E0FDBC0E22FE33649F40E94D808E8890B
:10058E00F989A481AA930E94DE08CEC0E33741F414
:10059E000E94D8080E94E4080E9441081E2F0AC03B
:1005AE00E03761F40E94D8080E94E4080E944D08CA
:1005BE001E2F086002600F7730E034C0E43611F071
:1005CE00E93611F4046002C0E53731F4E8E3F2E0F5
:1005DE00EE83FF8315E00CC0E83511F4086003C00C
:1005EE00E83709F0A1C0E2E4F2E0EE83FF8314E005
:1005FE0002FF14C00E94D8080E94EE08AB85AA2301
:10060E003AF4EA85FB850E947909EA87FB874DE279
:10061E00403011F01F5F01C00B7F04C00E94D8084C
:10062E000E94EE0800FD11C0151778F407FF08C0F0
:10063E0002FF04C00B7F242F115001C020E301C024
:10064E0020E20E94D1085150EFCF312F01FF17C089
:10065E003030A1F003FF06C0EE81FF812591EE83BD
:10066E00FF8305C0AE81BF812D91AE83BF830E94F3
:10067E00D108503009F051503150EACF4BC020E331
:10068E00EE81FF810E94AF09E887F987EE81FF8135
:10069E003296EE83FF83E885F985AA85BB85AE1772
:1006AE00BF0750F02F5FA885B985EA85FB85EA1B49
:1006BE00FB0BEA87FB87EFCF2A3328F003FF02C03C
:1006CE00295F01C0295D04FD1AC0213320F4A885DD
:1006DE00B985119709F409C0531710F000FF01C036
:1006EE0013C020E207FF0BC020E3006102FF07C02A
:1006FE000B7F4A930E94DE08503009F051500E9441
:10070E00D108503009F051503150A885B985129753
:10071E0008F0B5CF00FF08C0503031F05150E0E284
:10072E00EA930E94DE08F8CF10E0E0CEAC85BD85DE
:10073E000E94AB090E94E00964960895FF92F82E7C
:10074E0026970E94DB090E94F608309719F4EFEF06
:10075E00FFEF23C0DE0116960E9475098D010E94DF
:10076E00F608EE83FF83E0E0E887E987DE011A965C
:10077E000E9475090E94AB09FA93EA931A930A93A1
:10078E00E7E3F2E0FA93EA93DE011A96A3DE9F0105
:10079E00AE81BF81E0E0EC93F9010E94E2092A9656
:1007AE00FF9008950895AA931A93A99818E0FADF76
:1007BE00E981E07811F0AB9A01C0AB98E981EE0FB8
:1007CE00E983F0DFAC9AEEDFAC98115081F7A99A6D
:1007DE0018810C946308AA93AA98A881E4DFC9C073
:1007EE00AA93AA9AA881DFDFC4C0AA931A93E981BB
:1007FE00E695E695E6951E2FE4E5E19FF001DF0113
:10080E00EA81F0E0EA0FFB1FE093B102F093B2022F
:10081E00E12F18810C94AA08AA93E981E068AE2F03
:10082E00DADFE981EA93A981E0DFE064AE2FD3DF5E
:10083E000C946308AA93E981EA93A981EDDFE09114
:10084E00B102F091B202ED54FD4FE0810C946308B9
:10085E00AA930E94FD083197ED54FD4FA881A08305
:10086E00BFDF87C0BA93AA930E94DB09A19AA99A07
:10087E00A49AAC98A39AA29AA09AA898AAE0B0E0DB
:10088E000E946B09A89AEC81FD81309721F1E681D7
:10089E00E3701E2FEC81FD81E681E695E695E7700B
:1008AE000E2FEC81FD81E781EF773E2FAC81BD816C
:1008BE000E94AB09E0938002F093810212960E948F
:1008CE00AB09E0939502F0939602AC81BD8114962C
:1008DE000E94AB090DC010E003E032E3E0E0F0E06F
:1008EE00E0938002F0938102E0939502F0939602DA
:1008FE00E0939702F0939802A1E26DDFE12FE4609E
:10090E00AE2F69DFE02FE061AE2F65DFE32FE068E9
:10091E00AE2F61DFA0E25FDFA1E022D0E1E0E09345
:10092E007C02E0E0E0937D02E1E0E0938202E0935E
:10093E008302E0938402EFEFE0938502E1E0E0931F
:10094E008C02EDE8F2E0FA93EA93EFEFEA93A8E077
:10095E00B0E00E9431080FD0E1E00E94E20960C0D1
:10096E00AA93E881E03011F0ECE001C0E8E0AE2F90
:10097E0032DF219608950E94DB0930E0E0917D027E
:10098E00E03009F03FEFE0E0EA93A0E045DF08EF4A
:10099E0011E0F80101501040309719F0A32F58DFE5
:1009AE00F8CFE0E0EA93A0E048D30E94E2090C946D
:1009BE00C908AA931A93ED81EA93AD813BDF1E2FEE
:1009CE00E981E73011F0E83039F4EB81EA93AA813E
:1009DE000E946508EB8308C0E33021F4EB81E095BB
:1009EE00EB8302C0E03021F4EA81E0951E2302C0C1
:1009FE00E23029F4EA81AB81EA231E2B0EC0E130EE
:100A0E0029F4EA81AB81EA231E2707C0E43029F4DA
:100A1E00EA81E095AB81EA2B1E23A12F19DF188105
:100A2E0026960895AA9323970E94D909A889A435DA
:100A3E0048F4AF85A03330F4AE85A03019F0AD8503
:100A4E00A03009F4D5C1EE85E887A889BB27EE85CD
:100A5E00F0E0AE0FBF1FA535E0E0BE0720F0A8897D
:100A6E00E4E5EA1BEE872D85AF85BB27ED85F0E02B
:100A7E00AE0FBF1FD19720F0AF85E0E3EA1BED87E5
:100A8E00A985A63009F05BC0EC85E13009F4B0C150
:100A9E00E33039F4E0919702F0919802309709F41F
:100AAE00A7C10885ED85E695E695E6953E2FE22FE2
:100ABE00E77019F4AD852A17E9F0A02FBB27E32FB5
:100ACE00F0E00E948D09AA85BB850E94000926953B
:100ADE0026952695532F5F935F5FE22FAF91EA170E
:100AEE0048F0102FE12F1150E03019F00E94050947
:100AFE00F9CFF1CFAE850A1711F1EE85AA85BB8528
:100B0E00F0E00E940009ED85E77009F03F5F20E0FC
:100B1E002F932F5FE32FAF91AE1788F41E851F938F
:100B2E001F5FE02FAF91AE1718F40E940509F7CFA3
:100B3E00EE85AE81BF81F0E00E940009E9CFEF851E
:100B4E00E7703E2FED85E03009F452C1EA85FB8552
:100B5E00EE83FF8310E00889303009F066C0AD8562
:100B6E00A83008F45DC0E985E03011F0E33009F4F7
:100B7E0002C0E73009F402C0E83009F402C0E930DF
:100B8E0009F402C0EA3021F40A93A88945DE04C0B4
:100B9E00E63011F40E9412091F931F5FEE85AF918C
:100BAE00AE17B8F5A985A63069F40E941609FA9316
:100BBE00EA930E94FD083197ED54FD4FA0810E94EB
:100BCE00AC0826C0E985E93011F450E00EC0EA30D9
:100BDE0011F45FEF0AC00E9416090E941F095E2FD2
:100BEE00E985E73011F0E83021F40E9425095E2FE7
:100BFE0006C0E33011F4509502C0E03019F4A52F71
:100C0E00EFDD06C00E942909EFEFEA93AD85D1DE34
:100C1E00C3CFEF85E85FEF87ED85E850ED87DFC046
:100C2E005D8520E0E0E0ED8781C0E32FAD85AE0F5E
:100C3E00A93020F42D85E0E0ED8703C0E8E0E31B4A
:100C4E002E2F3A93A22F0E945A084E2FE985E63096
:100C5E0029F50E9412091F931F5FEE85AF91AE1703
:100C6E00E0F40E94FD083197ED54FD4FE081E4233E
:100C7E00AE2FE32F0E9485090E942F09E32FA42F88
:100C8E000E948509E095E1215E2B0E941609FA93D8
:100C9E00EA93A52F0E94AC08DECF2CC0E93011F4E8
:100CAE0050E003C0EA30A9F45FEF0E942509AE2F91
:100CBE00E32F0E947D095E2F1F931F5FEE85AF917C
:100CCE00AE1730F40E9429094A93A0E072DEF4CFE9
:100CDE0011C01F931F5FEE85AF91AE1758F40E949F
:100CEE003A09AE2FE32F0E947D09EA934A93AD8510
:100CFE0060DEEFCFED85E03009F47AC0AD85A83027
:100D0E0028F4ED85E21B5E2FE0E003C0532FED8546
:100D1E00E850ED8710E0EF85E85FEF87E8E0E31B32
:100D2E002E2F0889EA85FB85EE83FF83E52FF0E001
:100D3E00E65BFD4F4491E985E63029F50E941209E4
:100D4E001F931F5FEE85AF91AE17E0F40E94FD0872
:100D5E003197ED54FD4FE081E423AE2FE22F0E9438
:100D6E007D090E942F09E22FA42F0E947D09E09594
:100D7E00E1215E2B0E941609FA93EA93A52F0E9499
:100D8E00AC08DECF2CC0E93011F450E003C0EA30DD
:100D9E00A9F45FEF0E942509AE2FE22F0E9485096C
:100DAE005E2F1F931F5FEE85AF91AE1730F40E943A
:100DBE0029094A93A0E0FDDDF4CF11C01F931F5FF8
:100DCE00EE85AF91AE1758F40E943A09AE2FE22F7E
:100DDE000E948509EA934A93AD85EBDDEFCFE88556
:100DEE00AA85BB85F0E0EA0FFB1FEA87FB87AACE38
:100DFE000E94E009619608950E94470924F0E0E000
:100E0E00F0E00C946308A881B981A435E0E0BE0738
:100E1E0024F0E3E5F0E00C946308E881F9810C948A
:100E2E0063080E94470924F0E0E0F0E00C946308A8
:100E3E00A881B981D09724F0EFE2F0E00C9463081A
:100E4E00E881F9810C946308BA93AA9323970E94C0
:100E5E004E098F01002E012A19F4E0E0F0E05FC088
:100E6E000E9455090F820E9455090E820E94550953
:100E7E000886EB85A885EA1718F4E0E0F0E04FC08D
:100E8E00F8010F5F1F4F5491A885BB27EE27A50FC2
:100E9E00BE1FEB85F0E0EA17FB0718F0E0E0F0E08C
:100EAE003EC0EE81E695E695E6954E2FEE81E77013
:100EBE0009F04F5FEF81E030A1F0A985BA85EC9380
:100ECE00A885EB85EA1BF0E0DF01EF81F0E00E94E0
:100EDE008D09DF01E42FF0E00E948D09E00FF11F74
:100EEE001EC09801E52FF0E00E0F1F1FA885AF5F03
:100EFE00A887A150EB85AE1760F4F9012F5F3F4F25
:100F0E00A491B0E0E42FF0E00E948D090E0F1F1F98
:100F1E00EDCFF901E491A985BA85EC93F8010E9411
:100F2E00E0092C960895E0E0E0937E02A0917F0206
:100F3E00BB270E945A09F0E0AE0FBF1FE09183025B
:100F4E00F0E0AE0FBF1F6DDFE0937F020895AA930E
:100F5E0021970E944E09309709F455C0AF81AA30EF
:100F6E0009F44FC0EF81EA93DE0117966DDFAF01F2
:100F7E00309709F44AC0E0918202AE81EA0F3E2F0B
:100F8E00A0917E02BB27F0E0EA0FFB1F8F01053513
:100F9E00E0E01E0718F0032F1127C5DFE0917E0257
:100FAE00EA93E0917F02EA93E885EA930E945A0958
:100FBE00EA93E1E0EA935A934A93A7E033DDE09196
:100FCE007E02AE81EA0FEA93E0917F02EA93E0910E
:100FDE008202EA930E945A090E946109E0917E0200
:100FEE00EA93A0917F020E945A09EA0FEA933A937C
:100FFE00E09183020E946109E4E5F0E0E017F10759
:10100E0011F491DF02C000937E020E94E00928963F
:10101E000895BA93AA931A93EC81EA93AC810DD0FA
:10102E00A981BA81ED91A983BA831E2FE03019F000
:10103E00A12F8DDFF5CF18811BC0AA93A981BB27E5
:10104E00DBDEE0937E02A881BB27EBDEE0937F021E
:10105E000C946308BA93AA93B981A881109631F0C3
:10106E00FC81EB816A8161931197E9F7EB81FC8139
:10107E0025960895BA93AA93A991B991EE27FF27C1
:10108E006D91662311F03196FBCF0895BA93AA9312
:10109E00AA27BB27E991F9910590002011F011962E
:1010AE00FBCFFD010895AA93E881F0E0E65BFD4FCA
:1010BE00A491E9810E947D0922960895AA931A931C
:1010CE00E981E73011F0EA3019F410917C0209C081
:1010DE00E93019F410917D0204C0E830A1F41091AA
:1010EE008C02E0917D02E03049F0103019F0EFEF04
:1010FE00188129C0EA81E095188125C0103019F4B5
:10110E00E0E0188120C0EA8118811DC0BA93AA932D
:10111E00EA81E13021F4E881F981E49114C0E230F2
:10112E0029F4A881B9810E94B8090DC0E33041F4B9
:10113E00A881B981E0919502F0919602099503C0BC
:10114E00A881B981EC9123960895AA93EB81E030A2
:10115E0029F4E881A981BA81EC9314C0E23031F40C
:10116E00E881A981BA810E94C4090CC0E33051F410
:10117E00E981FA81FA93EA93AA81E0919702F091BC
:10118E009802099524960895ED91FD913196FE935E
:10119E00EE9308952A93AD85BE85EF85F88909955E
:1011AE000895E889F9893497E88BF98B0895AD8510
:1011BE00BE85EF85F88909950895A889B989149691
:1011CE000E94AB09EE83FF83AE81BF810895A8898B
:1011DE00B98914960E94AB09EA87FB870895DE0150
:1011EE001C960E9475090E94AB090895A1EBB2E00E
:1011FE00CBCFEA0FFB1FEE83FF830895EC85EA93B6
:10120E00EF81F8853196EF83F8873197FA93EA9359
:10121E00A0E00C94AC080A93A8890C94FC03EC850E
:10122E00EA93EF81F8853196EF83F8873197089529
:10123E0066277727DF01CB010C948D085A93AA8578
:10124E000C9465080A930395E889EA935A930895D6
:10125E005E2FEC85EA93AF81B885882799270E9487
:10126E008D081E2E08950A930395E889EA93EE855C
:10127E00EA93E985FA853196E987FA873197D8CFCF
:10128E00BA93AA93A881B9810E94D50908950E94A4
:10129E00D909E0918002F09181020895F8010F5F63
:1012AE001F4F04900895E0918002F09181023196D3
:1012BE00E4910895EA93E0E0EA93E0E0F0E0FA9337
:1012CE00EA93A9E00C941905109639F080ED97E099
:1012DE000197F1F7A8951197C9F708950024AF0D5E
:1012EE00B01D0895F195E195F0400895EE230E2E70
:1012FE00EA2F19F0EE0F0A94E9F70895EE230E2E59
:10130E00EA2F19F0E6950A94E9F70895FA9FF02D61
:10131E00EB9FF00DEA9FE02DF10D089500241124AE
:10132E0090E1AA0FBB1F001C111C0E1A1F0A18F405
:10133E000E0E1F1E01C0A1609A9599F7FD01D001F6
:10134E000895ECDFFD010895ED91FC91119708953C
:10135E000590F491E02D08957A936A93FA93EA93A7
:10136E000895E199FECFFF93FFB7F894AEBBBFBBD4
:10137E00E09AEDB3FFBFFF910895E19B02C0A895DF
:10138E00FCCF9FB7F894AEBBBFBBE09A8DB3E81706
:10139E0019F0EDBBE29AE19A9FBF089500240A1658
:1013AE000B0608955A934A933A932A931A930A93E3
:1013BE0008955D814C813B812A81198108810895B0
:00000001FF
