:0E0000001BC0FECFFDCFFCCFFBCFFACFF9CF58
:10000E00F8CFF7CFC2C0F5CFF4CFF3CFF2CFF1CF09
:10001E00F0CFEFCFEECFEDCF005300000000000089
:10002E0000000A00040026000000F894EE27ECBB46
:10003E00F1E0FBBFEBBFE5BF8DE0A2E0BB27ED9388
:10004E008A95E9F780E094E0A0E6ED930197E9F751
:10005E00E0E3F0E085919591009761F0A591B5915F
:10006E0005901590BF01F00105900D920197E1F7F3
:10007E00FB01F0CFEFE5EDBFE4E0EEBFC0E6D1E06F
:10008E00A8C0AA931A9310E01830C8F4E981E0785A
:10009E0011F4AB9801C0AB9A8DE08A95F1F7E98126
:1000AE00EE0FE983AA9A8DE08A95F1F7E0E09C992C
:1000BE00E1E0A981EA2BE983AA981F5FE5CFE981E8
:1000CE00188161C0A89A88E795E00197F1F7A89882
:1000DE00A99A0895AA93A998E981E062AE2FAFD0AC
:1000EE00B1D051C0AA93A998E3E0EA93A3E0F2DF5E
:1000FE00A9D0A998AAE2A3D0AAD0A9D0A3D0A99892
:10010E00A0E39DD0A4D0A3D09DD021960895E0E089
:10011E00EA93AFE1DFDFA89A0895A898E0E0EA93AA
:10012E00AEE11AC08BE18A95F1F7E0E0EA93AFE118
:10013E00D1DFA2E0B0E094D08CD0E1E18ED0E5E04A
:10014E00EA93A2E0C7DFA52DCDDFE2E086D0E1E0A5
:10015E0084D0E4E0EA93A0E0BDDF0895AA93A981DC
:10016E00C1DF70D0A998A1EE8CDF6CD0A998A0EA5F
:10017E0066D0A99AA89A88EE93E00197F1F7A8980D
:10018E0068D0A52DAFDF229608950A921A929A93FF
:10019E00AA93BA93EA93FA93EFB7EA93E2EBE2BF2C
:1001AE00442069F0F4013A964F01D401E8EEF3E0F1
:1001BE0074D0309721F4F30131963F013197E991D4
:1001CE00EFBFF991E991B991A9919991199009907F
:1001DE001895EFE0E4BBEFE3E5BBECE0E1BBE3E059
:1001EE00E2BBE5E0E3BFE2EBE2BFE1E0E9BF78941A
:1001FE0069DF98DF8CDF91DF809905C0442019F408
:10020E00E1E04E2E5301819911C0442079F0F301A3
:10021E00EA19FB096F01E2E0F0E0CE16DF0610F4FA
:10022E00E1E001C0E0E0E093600144245A92A09125
:10023E00600194DFA1E0B0E013D0DDCFFFCF21DF6E
:10024E00A8811FCFA99A8BE18A95F1F70895A8810D
:10025E00F6CFE7E0EA93AEE73DCFEA93A1E03ACFDF
:10026E00109639F080ED97E00197F1F7A895119768
:10027E00C9F708950024112490E1AA0FBB1F001C9A
:10028E00111C0E1A1F0A18F40E0E1F1E01C0A160BB
:10029E009A9599F7FD01D0010895ECDFFD010895BF
:00000001FF
